{
  "contractName": "DisasterRelief",
  "abi": [
    {
      "inputs": [],
      "stateMutability": "nonpayable",
      "type": "constructor"
    },
    {
      "anonymous": false,
      "inputs": [
        {
          "indexed": true,
          "internalType": "address",
          "name": "donor",
          "type": "address"
        },
        {
          "indexed": false,
          "internalType": "uint256",
          "name": "amount",
          "type": "uint256"
        }
      ],
      "name": "DonationReceived",
      "type": "event"
    },
    {
      "anonymous": false,
      "inputs": [
        {
          "indexed": true,
          "internalType": "address",
          "name": "recipient",
          "type": "address"
        },
        {
          "indexed": false,
          "internalType": "uint256",
          "name": "amount",
          "type": "uint256"
        }
      ],
      "name": "FundsWithdrawn",
      "type": "event"
    },
    {
      "inputs": [
        {
          "internalType": "address",
          "name": "",
          "type": "address"
        }
      ],
      "name": "donations",
      "outputs": [
        {
          "internalType": "uint256",
          "name": "",
          "type": "uint256"
        }
      ],
      "stateMutability": "view",
      "type": "function"
    },
    {
      "inputs": [],
      "name": "owner",
      "outputs": [
        {
          "internalType": "address",
          "name": "",
          "type": "address"
        }
      ],
      "stateMutability": "view",
      "type": "function"
    },
    {
      "inputs": [],
      "name": "totalFunds",
      "outputs": [
        {
          "internalType": "uint256",
          "name": "",
          "type": "uint256"
        }
      ],
      "stateMutability": "view",
      "type": "function"
    },
    {
      "inputs": [],
      "name": "donate",
      "outputs": [],
      "stateMutability": "payable",
      "type": "function"
    },
    {
      "inputs": [
        {
          "internalType": "address payable",
          "name": "recipient",
          "type": "address"
        },
        {
          "internalType": "uint256",
          "name": "amount",
          "type": "uint256"
        }
      ],
      "name": "withdraw",
      "outputs": [],
      "stateMutability": "nonpayable",
      "type": "function"
    },
    {
      "inputs": [],
      "name": "getBalance",
      "outputs": [
        {
          "internalType": "uint256",
          "name": "",
          "type": "uint256"
        }
      ],
      "stateMutability": "view",
      "type": "function"
    }
  ],
  "bytecode": "0x608060405234801561000f575f80fd5b50335f806101000a81548173ffffffffffffffffffffffffffffffffffffffff021916908373ffffffffffffffffffffffffffffffffffffffff1602179055506108d08061005c5f395ff3fe608060405260043610610054575f3560e01c806312065fe0146100585780638da5cb5b14610082578063968ed600146100ac578063cc6cb19a146100d6578063ed88c68e14610112578063f3fef3a31461011c575b5f80fd5b348015610063575f80fd5b5061006c610144565b6040516100799190610483565b60405180910390f35b34801561008d575f80fd5b5061009661014b565b6040516100a391906104db565b60405180910390f35b3480156100b7575f80fd5b506100c061016e565b6040516100cd9190610483565b60405180910390f35b3480156100e1575f80fd5b506100fc60048036038101906100f79190610522565b610174565b6040516101099190610483565b60405180910390f35b61011a610189565b005b348015610127575f80fd5b50610142600480360381019061013d91906105b2565b610286565b005b5f47905090565b5f8054906101000a900473ffffffffffffffffffffffffffffffffffffffff1681565b60015481565b6002602052805f5260405f205f915090505481565b5f34116101cb576040517f08c379a00000000000000000000000000000000000000000000000000000000081526004016101c29061064a565b60405180910390fd5b3460025f3373ffffffffffffffffffffffffffffffffffffffff1673ffffffffffffffffffffffffffffffffffffffff1681526020019081526020015f205f8282546102179190610695565b925050819055503460015f82825461022f9190610695565b925050819055503373ffffffffffffffffffffffffffffffffffffffff167f264f630d9efa0d07053a31163641d9fcc0adafc9d9e76f1c37c2ce3a558d2c523460405161027c9190610483565b60405180910390a2565b5f8054906101000a900473ffffffffffffffffffffffffffffffffffffffff1673ffffffffffffffffffffffffffffffffffffffff163373ffffffffffffffffffffffffffffffffffffffff1614610313576040517f08c379a000000000000000000000000000000000000000000000000000000000815260040161030a90610738565b60405180910390fd5b600154811115610358576040517f08c379a000000000000000000000000000000000000000000000000000000000815260040161034f906107a0565b60405180910390fd5b5f8273ffffffffffffffffffffffffffffffffffffffff168260405161037d906107eb565b5f6040518083038185875af1925050503d805f81146103b7576040519150601f19603f3d011682016040523d82523d5f602084013e6103bc565b606091505b5050905080610400576040517f08c379a00000000000000000000000000000000000000000000000000000000081526004016103f790610849565b60405180910390fd5b8160015f8282546104119190610867565b925050819055508273ffffffffffffffffffffffffffffffffffffffff167feaff4b37086828766ad3268786972c0cd24259d4c87a80f9d3963a3c3d999b0d8360405161045e9190610483565b60405180910390a2505050565b5f819050919050565b61047d8161046b565b82525050565b5f6020820190506104965f830184610474565b92915050565b5f73ffffffffffffffffffffffffffffffffffffffff82169050919050565b5f6104c58261049c565b9050919050565b6104d5816104bb565b82525050565b5f6020820190506104ee5f8301846104cc565b92915050565b5f80fd5b610501816104bb565b811461050b575f80fd5b50565b5f8135905061051c816104f8565b92915050565b5f60208284031215610537576105366104f4565b5b5f6105448482850161050e565b91505092915050565b5f6105578261049c565b9050919050565b6105678161054d565b8114610571575f80fd5b50565b5f813590506105828161055e565b92915050565b6105918161046b565b811461059b575f80fd5b50565b5f813590506105ac81610588565b92915050565b5f80604083850312156105c8576105c76104f4565b5b5f6105d585828601610574565b92505060206105e68582860161059e565b9150509250929050565b5f82825260208201905092915050565b7f446f6e6174696f6e206d7573742062652067726561746572207468616e2030005f82015250565b5f610634601f836105f0565b915061063f82610600565b602082019050919050565b5f6020820190508181035f83015261066181610628565b9050919050565b7f4e487b71000000000000000000000000000000000000000000000000000000005f52601160045260245ffd5b5f61069f8261046b565b91506106aa8361046b565b92508282019050808211156106c2576106c1610668565b5b92915050565b7f4f6e6c79206f776e65722063616e2063616c6c20746869732066756e6374696f5f8201527f6e00000000000000000000000000000000000000000000000000000000000000602082015250565b5f6107226021836105f0565b915061072d826106c8565b604082019050919050565b5f6020820190508181035f83015261074f81610716565b9050919050565b7f496e73756666696369656e742066756e647300000000000000000000000000005f82015250565b5f61078a6012836105f0565b915061079582610756565b602082019050919050565b5f6020820190508181035f8301526107b78161077e565b9050919050565b5f81905092915050565b50565b5f6107d65f836107be565b91506107e1826107c8565b5f82019050919050565b5f6107f5826107cb565b9150819050919050565b7f5472616e73666572206661696c656400000000000000000000000000000000005f82015250565b5f610833600f836105f0565b915061083e826107ff565b602082019050919050565b5f6020820190508181035f83015261086081610827565b9050919050565b5f6108718261046b565b915061087c8361046b565b925082820390508181111561089457610893610668565b5b9291505056fea2646970667358221220a8830fc4b93d7ffbe2aa3fdc2c7dabce9a66bcf0026560e4280643a0cad069b064736f6c63430008150033",
  "immutableReferences": {},
  "source": "// SPDX-License-Identifier: MIT\r\npragma solidity ^0.8.0;\r\n\r\ncontract DisasterRelief {\r\n    address public owner;\r\n    uint public totalFunds;\r\n    mapping(address => uint) public donations;\r\n\r\n    event DonationReceived(address indexed donor, uint amount);\r\n    event FundsWithdrawn(address indexed recipient, uint amount);\r\n\r\n    modifier onlyOwner() {\r\n        require(msg.sender == owner, \"Only owner can call this function\");\r\n        _; // Ensures the function proceeds after the modifier logic\r\n    }\r\n\r\n    constructor() {\r\n        owner = msg.sender;  // Setting the owner to the address that deploys the contract\r\n    }\r\n\r\n    // Function to donate to the platform\r\n    function donate() public payable {\r\n        require(msg.value > 0, \"Donation must be greater than 0\");\r\n        donations[msg.sender] += msg.value;\r\n        totalFunds += msg.value;\r\n\r\n        emit DonationReceived(msg.sender, msg.value);\r\n    }\r\n\r\n    // Function to withdraw funds for relief efforts\r\n    function withdraw(address payable recipient, uint amount) public onlyOwner {\r\n        require(amount <= totalFunds, \"Insufficient funds\");\r\n        \r\n        // Using 'call' instead of 'transfer' for better gas handling\r\n        (bool success, ) = recipient.call{value: amount}(\"\");\r\n        require(success, \"Transfer failed\");\r\n\r\n        totalFunds -= amount;  // Update the total funds after withdrawal\r\n        emit FundsWithdrawn(recipient, amount);\r\n    }\r\n\r\n    // Function to check the balance of the contract\r\n    function getBalance() public view returns (uint) {\r\n        return address(this).balance;\r\n    }\r\n}\r\n",
  "sourcePath": "D:\\anti-corruption disaster relief\\disaster-relief-dapp\\contracts\\DisasterRelief.sol",
  "compiler": {
    "name": "solc",
    "version": "0.8.21+commit.d9974bed.Emscripten.clang"
  },
  "schemaVersion": "3.4.16",
  "updatedAt": "2024-12-27T12:07:46.658Z",
  "devdoc": {
    "kind": "dev",
    "methods": {},
    "version": 1
  },
  "userdoc": {
    "kind": "user",
    "methods": {},
    "version": 1
  }
}